{"abi":[{"type":"function","name":"getChildIp","inputs":[{"name":"","type":"address","internalType":"address"},{"name":"","type":"uint256","internalType":"uint256"}],"outputs":[{"name":"","type":"address","internalType":"address"}],"stateMutability":"pure"},{"type":"function","name":"getChildIpsCount","inputs":[{"name":"","type":"address","internalType":"address"}],"outputs":[{"name":"","type":"uint256","internalType":"uint256"}],"stateMutability":"pure"},{"type":"function","name":"getChildLicenseId","inputs":[{"name":"","type":"address","internalType":"address"},{"name":"","type":"address","internalType":"address"},{"name":"","type":"uint256","internalType":"uint256"}],"outputs":[{"name":"","type":"uint256","internalType":"uint256"}],"stateMutability":"pure"},{"type":"function","name":"getChildLicenseIds","inputs":[{"name":"","type":"address","internalType":"address"},{"name":"","type":"address","internalType":"address"}],"outputs":[{"name":"","type":"uint256[]","internalType":"uint256[]"}],"stateMutability":"pure"},{"type":"function","name":"getParentIp","inputs":[{"name":"","type":"address","internalType":"address"},{"name":"","type":"uint256","internalType":"uint256"}],"outputs":[{"name":"","type":"address","internalType":"address"}],"stateMutability":"pure"},{"type":"function","name":"getParentIpsCount","inputs":[{"name":"","type":"address","internalType":"address"}],"outputs":[{"name":"","type":"uint256","internalType":"uint256"}],"stateMutability":"pure"},{"type":"function","name":"getParentLicenseId","inputs":[{"name":"","type":"address","internalType":"address"},{"name":"","type":"address","internalType":"address"},{"name":"","type":"uint256","internalType":"uint256"}],"outputs":[{"name":"","type":"uint256","internalType":"uint256"}],"stateMutability":"pure"},{"type":"function","name":"getParentLicenseIds","inputs":[{"name":"","type":"address","internalType":"address"},{"name":"","type":"address","internalType":"address"}],"outputs":[{"name":"","type":"uint256[]","internalType":"uint256[]"}],"stateMutability":"pure"}],"bytecode":{"object":"0x6080604052348015600e575f80fd5b506102808061001c5f395ff3fe608060405234801561000f575f80fd5b5060043610610085575f3560e01c8063c61f34d211610058578063c61f34d214610117578063cea6353c146100c8578063d143d36214610117578063e5b9f834146100e9575f80fd5b80631aa50dcb146100895780635a5f66a9146100c857806380de6bb7146100e95780638f363bab14610089575b5f80fd5b61009e610097366004610155565b5f92915050565b60405173ffffffffffffffffffffffffffffffffffffffff90911681526020015b60405180910390f35b6100db6100d636600461017d565b505f90565b6040519081526020016100bf565b61010a6100f736600461019d565b5050604080515f81526020810190915290565b6040516100bf91906101ce565b6100db610125366004610210565b5f9392505050565b803573ffffffffffffffffffffffffffffffffffffffff81168114610150575f80fd5b919050565b5f8060408385031215610166575f80fd5b61016f8361012d565b946020939093013593505050565b5f6020828403121561018d575f80fd5b6101968261012d565b9392505050565b5f80604083850312156101ae575f80fd5b6101b78361012d565b91506101c56020840161012d565b90509250929050565b602080825282518282018190525f918401906040840190835b818110156102055783518352602093840193909201916001016101e7565b509095945050505050565b5f805f60608486031215610222575f80fd5b61022b8461012d565b92506102396020850161012d565b92959294505050604091909101359056fea26469706673582212208f33d2325d8d11a6a0fc6db1a59e41f3b76bdc5538a6532003af09a5ea9fac9d64736f6c634300081a0033","linkReferences":{}},"methodIdentifiers":{"getChildIp(address,uint256)":"1aa50dcb","getChildIpsCount(address)":"cea6353c","getChildLicenseId(address,address,uint256)":"d143d362","getChildLicenseIds(address,address)":"80de6bb7","getParentIp(address,uint256)":"8f363bab","getParentIpsCount(address)":"5a5f66a9","getParentLicenseId(address,address,uint256)":"c61f34d2","getParentLicenseIds(address,address)":"e5b9f834"},"id":6}