{"abi":[{"type":"constructor","inputs":[{"name":"name","type":"string","internalType":"string"},{"name":"symbol","type":"string","internalType":"string"}],"stateMutability":"nonpayable"},{"type":"function","name":"approve","inputs":[{"name":"to","type":"address","internalType":"address"},{"name":"tokenId","type":"uint256","internalType":"uint256"}],"outputs":[],"stateMutability":"nonpayable"},{"type":"function","name":"balanceOf","inputs":[{"name":"owner","type":"address","internalType":"address"}],"outputs":[{"name":"","type":"uint256","internalType":"uint256"}],"stateMutability":"view"},{"type":"function","name":"getApproved","inputs":[{"name":"tokenId","type":"uint256","internalType":"uint256"}],"outputs":[{"name":"","type":"address","internalType":"address"}],"stateMutability":"view"},{"type":"function","name":"isApprovedForAll","inputs":[{"name":"owner","type":"address","internalType":"address"},{"name":"operator","type":"address","internalType":"address"}],"outputs":[{"name":"","type":"bool","internalType":"bool"}],"stateMutability":"view"},{"type":"function","name":"mint","inputs":[{"name":"to","type":"address","internalType":"address"}],"outputs":[{"name":"","type":"uint256","internalType":"uint256"}],"stateMutability":"nonpayable"},{"type":"function","name":"name","inputs":[],"outputs":[{"name":"","type":"string","internalType":"string"}],"stateMutability":"view"},{"type":"function","name":"nextTokenId","inputs":[],"outputs":[{"name":"","type":"uint256","internalType":"uint256"}],"stateMutability":"view"},{"type":"function","name":"ownerOf","inputs":[{"name":"tokenId","type":"uint256","internalType":"uint256"}],"outputs":[{"name":"","type":"address","internalType":"address"}],"stateMutability":"view"},{"type":"function","name":"safeTransferFrom","inputs":[{"name":"from","type":"address","internalType":"address"},{"name":"to","type":"address","internalType":"address"},{"name":"tokenId","type":"uint256","internalType":"uint256"}],"outputs":[],"stateMutability":"nonpayable"},{"type":"function","name":"safeTransferFrom","inputs":[{"name":"from","type":"address","internalType":"address"},{"name":"to","type":"address","internalType":"address"},{"name":"tokenId","type":"uint256","internalType":"uint256"},{"name":"data","type":"bytes","internalType":"bytes"}],"outputs":[],"stateMutability":"nonpayable"},{"type":"function","name":"setApprovalForAll","inputs":[{"name":"operator","type":"address","internalType":"address"},{"name":"approved","type":"bool","internalType":"bool"}],"outputs":[],"stateMutability":"nonpayable"},{"type":"function","name":"supportsInterface","inputs":[{"name":"interfaceId","type":"bytes4","internalType":"bytes4"}],"outputs":[{"name":"","type":"bool","internalType":"bool"}],"stateMutability":"view"},{"type":"function","name":"symbol","inputs":[],"outputs":[{"name":"","type":"string","internalType":"string"}],"stateMutability":"view"},{"type":"function","name":"tokenURI","inputs":[{"name":"tokenId","type":"uint256","internalType":"uint256"}],"outputs":[{"name":"","type":"string","internalType":"string"}],"stateMutability":"view"},{"type":"function","name":"transferFrom","inputs":[{"name":"from","type":"address","internalType":"address"},{"name":"to","type":"address","internalType":"address"},{"name":"tokenId","type":"uint256","internalType":"uint256"}],"outputs":[],"stateMutability":"nonpayable"},{"type":"event","name":"Approval","inputs":[{"name":"owner","type":"address","indexed":true,"internalType":"address"},{"name":"approved","type":"address","indexed":true,"internalType":"address"},{"name":"tokenId","type":"uint256","indexed":true,"internalType":"uint256"}],"anonymous":false},{"type":"event","name":"ApprovalForAll","inputs":[{"name":"owner","type":"address","indexed":true,"internalType":"address"},{"name":"operator","type":"address","indexed":true,"internalType":"address"},{"name":"approved","type":"bool","indexed":false,"internalType":"bool"}],"anonymous":false},{"type":"event","name":"Transfer","inputs":[{"name":"from","type":"address","indexed":true,"internalType":"address"},{"name":"to","type":"address","indexed":true,"internalType":"address"},{"name":"tokenId","type":"uint256","indexed":true,"internalType":"uint256"}],"anonymous":false},{"type":"error","name":"ERC721IncorrectOwner","inputs":[{"name":"sender","type":"address","internalType":"address"},{"name":"tokenId","type":"uint256","internalType":"uint256"},{"name":"owner","type":"address","internalType":"address"}]},{"type":"error","name":"ERC721InsufficientApproval","inputs":[{"name":"operator","type":"address","internalType":"address"},{"name":"tokenId","type":"uint256","internalType":"uint256"}]},{"type":"error","name":"ERC721InvalidApprover","inputs":[{"name":"approver","type":"address","internalType":"address"}]},{"type":"error","name":"ERC721InvalidOperator","inputs":[{"name":"operator","type":"address","internalType":"address"}]},{"type":"error","name":"ERC721InvalidOwner","inputs":[{"name":"owner","type":"address","internalType":"address"}]},{"type":"error","name":"ERC721InvalidReceiver","inputs":[{"name":"receiver","type":"address","internalType":"address"}]},{"type":"error","name":"ERC721InvalidSender","inputs":[{"name":"sender","type":"address","internalType":"address"}]},{"type":"error","name":"ERC721NonexistentToken","inputs":[{"name":"tokenId","type":"uint256","internalType":"uint256"}]}],"bytecode":{"object":"0x608060405234801561000f575f80fd5b5060405161181d38038061181d83398101604081905261002e916100ef565b81815f61003b83826101d8565b50600161004882826101d8565b5050505050610292565b634e487b7160e01b5f52604160045260245ffd5b5f82601f830112610075575f80fd5b81516001600160401b0381111561008e5761008e610052565b604051601f8201601f19908116603f011681016001600160401b03811182821017156100bc576100bc610052565b6040528181528382016020018510156100d3575f80fd5b8160208501602083015e5f918101602001919091529392505050565b5f8060408385031215610100575f80fd5b82516001600160401b03811115610115575f80fd5b61012185828601610066565b602085015190935090506001600160401b0381111561013e575f80fd5b61014a85828601610066565b9150509250929050565b600181811c9082168061016857607f821691505b60208210810361018657634e487b7160e01b5f52602260045260245ffd5b50919050565b601f8211156101d357805f5260205f20601f840160051c810160208510156101b15750805b601f840160051c820191505b818110156101d0575f81556001016101bd565b50505b505050565b81516001600160401b038111156101f1576101f1610052565b610205816101ff8454610154565b8461018c565b6020601f821160018114610237575f83156102205750848201515b5f19600385901b1c1916600184901b1784556101d0565b5f84815260208120601f198516915b828110156102665787850151825560209485019460019092019101610246565b508482101561028357868401515f19600387901b60f8161c191681555b50505050600190811b01905550565b61157e8061029f5f395ff3fe608060405234801561000f575f80fd5b50600436106100f0575f3560e01c80636a62784211610093578063a22cb46511610063578063a22cb465146101fb578063b88d4fde1461020e578063c87b56dd14610221578063e985e9c514610234575f80fd5b80636a627842146101b757806370a08231146101d857806375794a3c146101eb57806395d89b41146101f3575f80fd5b8063095ea7b3116100ce578063095ea7b31461016957806323b872dd1461017e57806342842e0e146101915780636352211e146101a4575f80fd5b806301ffc9a7146100f457806306fdde031461011c578063081812fc14610131575b5f80fd5b610107610102366004611117565b61027c565b60405190151581526020015b60405180910390f35b610124610360565b604051610113919061117e565b61014461013f366004611190565b6103ef565b60405173ffffffffffffffffffffffffffffffffffffffff9091168152602001610113565b61017c6101773660046111cf565b610423565b005b61017c61018c3660046111f7565b610432565b61017c61019f3660046111f7565b610526565b6101446101b2366004611190565b610545565b6101ca6101c5366004611231565b61054f565b604051908152602001610113565b6101ca6101e6366004611231565b610572565b6006546101ca565b6101246105ea565b61017c61020936600461124a565b6105f9565b61017c61021c3660046112b0565b610604565b61012461022f366004611190565b61061c565b6101076102423660046113ca565b73ffffffffffffffffffffffffffffffffffffffff9182165f90815260056020908152604080832093909416825291909152205460ff1690565b5f7fffffffff0000000000000000000000000000000000000000000000000000000082167f80ac58cd00000000000000000000000000000000000000000000000000000000148061030e57507fffffffff0000000000000000000000000000000000000000000000000000000082167f5b5e139f00000000000000000000000000000000000000000000000000000000145b8061035a57507f01ffc9a7000000000000000000000000000000000000000000000000000000007fffffffff000000000000000000000000000000000000000000000000000000008316145b92915050565b60605f805461036e906113fb565b80601f016020809104026020016040519081016040528092919081815260200182805461039a906113fb565b80156103e55780601f106103bc576101008083540402835291602001916103e5565b820191905f5260205f20905b8154815290600101906020018083116103c857829003601f168201915b5050505050905090565b5f6103f98261068d565b505f8281526004602052604090205473ffffffffffffffffffffffffffffffffffffffff1661035a565b61042e8282336106eb565b5050565b73ffffffffffffffffffffffffffffffffffffffff8216610486576040517f64a0ae920000000000000000000000000000000000000000000000000000000081525f60048201526024015b60405180910390fd5b5f6104928383336106f8565b90508373ffffffffffffffffffffffffffffffffffffffff168173ffffffffffffffffffffffffffffffffffffffff1614610520576040517f64283d7b00000000000000000000000000000000000000000000000000000000815273ffffffffffffffffffffffffffffffffffffffff8086166004830152602482018490528216604482015260640161047d565b50505050565b61054083838360405180602001604052805f815250610604565b505050565b5f61035a8261068d565b600680545f91829190826105628361144c565b91905055905061035a838261086f565b5f73ffffffffffffffffffffffffffffffffffffffff82166105c2576040517f89c62b640000000000000000000000000000000000000000000000000000000081525f600482015260240161047d565b5073ffffffffffffffffffffffffffffffffffffffff165f9081526003602052604090205490565b60606001805461036e906113fb565b61042e33838361091c565b61060f848484610432565b6105203385858585610a18565b60606106278261068d565b505f61063d60408051602081019091525f815290565b90505f81511161065b5760405180602001604052805f815250610686565b8061066584610c0e565b6040516020016106769291906114bf565b6040516020818303038152906040525b9392505050565b5f8181526002602052604081205473ffffffffffffffffffffffffffffffffffffffff168061035a576040517f7e2732890000000000000000000000000000000000000000000000000000000081526004810184905260240161047d565b6105408383836001610cca565b5f8281526002602052604081205473ffffffffffffffffffffffffffffffffffffffff9081169083161561073157610731818486610e92565b73ffffffffffffffffffffffffffffffffffffffff8116156107a4576107595f855f80610cca565b73ffffffffffffffffffffffffffffffffffffffff81165f90815260036020526040902080547fffffffffffffffffffffffffffffffffffffffffffffffffffffffffffffffff0190555b73ffffffffffffffffffffffffffffffffffffffff8516156107ec5773ffffffffffffffffffffffffffffffffffffffff85165f908152600360205260409020805460010190555b5f8481526002602052604080822080547fffffffffffffffffffffffff00000000000000000000000000000000000000001673ffffffffffffffffffffffffffffffffffffffff89811691821790925591518793918516917fddf252ad1be2c89b69c2b068fc378daa952ba7f163c4a11628f55a4df523b3ef91a4949350505050565b73ffffffffffffffffffffffffffffffffffffffff82166108be576040517f64a0ae920000000000000000000000000000000000000000000000000000000081525f600482015260240161047d565b5f6108ca83835f6106f8565b905073ffffffffffffffffffffffffffffffffffffffff811615610540576040517f73c6ac6e0000000000000000000000000000000000000000000000000000000081525f600482015260240161047d565b73ffffffffffffffffffffffffffffffffffffffff8216610981576040517f5b08ba1800000000000000000000000000000000000000000000000000000000815273ffffffffffffffffffffffffffffffffffffffff8316600482015260240161047d565b73ffffffffffffffffffffffffffffffffffffffff8381165f8181526005602090815260408083209487168084529482529182902080547fffffffffffffffffffffffffffffffffffffffffffffffffffffffffffffff001686151590811790915591519182527f17307eab39ab6107e8899845ad3d59bd9653f200f220920489ca2b5937696c31910160405180910390a3505050565b73ffffffffffffffffffffffffffffffffffffffff83163b15610c07576040517f150b7a0200000000000000000000000000000000000000000000000000000000815273ffffffffffffffffffffffffffffffffffffffff84169063150b7a0290610a8d9088908890879087906004016114d3565b6020604051808303815f875af1925050508015610ae5575060408051601f3d9081017fffffffffffffffffffffffffffffffffffffffffffffffffffffffffffffffe0168201909252610ae29181019061152d565b60015b610b72573d808015610b12576040519150601f19603f3d011682016040523d82523d5f602084013e610b17565b606091505b5080515f03610b6a576040517f64a0ae9200000000000000000000000000000000000000000000000000000000815273ffffffffffffffffffffffffffffffffffffffff8516600482015260240161047d565b805181602001fd5b7fffffffff0000000000000000000000000000000000000000000000000000000081167f150b7a020000000000000000000000000000000000000000000000000000000014610c05576040517f64a0ae9200000000000000000000000000000000000000000000000000000000815273ffffffffffffffffffffffffffffffffffffffff8516600482015260240161047d565b505b5050505050565b60605f610c1a83610f42565b60010190505f8167ffffffffffffffff811115610c3957610c39611283565b6040519080825280601f01601f191660200182016040528015610c63576020820181803683370190505b5090508181016020015b7fffffffffffffffffffffffffffffffffffffffffffffffffffffffffffffffff017f3031323334353637383961626364656600000000000000000000000000000000600a86061a8153600a8504945084610c6d57509392505050565b8080610ceb575073ffffffffffffffffffffffffffffffffffffffff821615155b15610e3e575f610cfa8461068d565b905073ffffffffffffffffffffffffffffffffffffffff831615801590610d4d57508273ffffffffffffffffffffffffffffffffffffffff168173ffffffffffffffffffffffffffffffffffffffff1614155b8015610d8b575073ffffffffffffffffffffffffffffffffffffffff8082165f9081526005602090815260408083209387168352929052205460ff16155b15610dda576040517fa9fbf51f00000000000000000000000000000000000000000000000000000000815273ffffffffffffffffffffffffffffffffffffffff8416600482015260240161047d565b8115610e3c57838573ffffffffffffffffffffffffffffffffffffffff168273ffffffffffffffffffffffffffffffffffffffff167f8c5be1e5ebec7d5bd14f71427d1e84f3dd0314c0f7b2291e5b200ac8c7c3b92560405160405180910390a45b505b50505f90815260046020526040902080547fffffffffffffffffffffffff00000000000000000000000000000000000000001673ffffffffffffffffffffffffffffffffffffffff92909216919091179055565b610e9d838383611023565b6105405773ffffffffffffffffffffffffffffffffffffffff8316610ef1576040517f7e2732890000000000000000000000000000000000000000000000000000000081526004810182905260240161047d565b6040517f177e802f00000000000000000000000000000000000000000000000000000000815273ffffffffffffffffffffffffffffffffffffffff831660048201526024810182905260440161047d565b5f807a184f03e93ff9f4daa797ed6e38ed64bf6a1f0100000000000000008310610f8a577a184f03e93ff9f4daa797ed6e38ed64bf6a1f010000000000000000830492506040015b6d04ee2d6d415b85acef81000000008310610fb6576d04ee2d6d415b85acef8100000000830492506020015b662386f26fc100008310610fd457662386f26fc10000830492506010015b6305f5e1008310610fec576305f5e100830492506008015b612710831061100057612710830492506004015b60648310611012576064830492506002015b600a831061035a5760010192915050565b5f73ffffffffffffffffffffffffffffffffffffffff8316158015906110df57508273ffffffffffffffffffffffffffffffffffffffff168473ffffffffffffffffffffffffffffffffffffffff1614806110af575073ffffffffffffffffffffffffffffffffffffffff8085165f9081526005602090815260408083209387168352929052205460ff165b806110df57505f8281526004602052604090205473ffffffffffffffffffffffffffffffffffffffff8481169116145b949350505050565b7fffffffff0000000000000000000000000000000000000000000000000000000081168114611114575f80fd5b50565b5f60208284031215611127575f80fd5b8135610686816110e7565b5f81518084528060208401602086015e5f6020828601015260207fffffffffffffffffffffffffffffffffffffffffffffffffffffffffffffffe0601f83011685010191505092915050565b602081525f6106866020830184611132565b5f602082840312156111a0575f80fd5b5035919050565b803573ffffffffffffffffffffffffffffffffffffffff811681146111ca575f80fd5b919050565b5f80604083850312156111e0575f80fd5b6111e9836111a7565b946020939093013593505050565b5f805f60608486031215611209575f80fd5b611212846111a7565b9250611220602085016111a7565b929592945050506040919091013590565b5f60208284031215611241575f80fd5b610686826111a7565b5f806040838503121561125b575f80fd5b611264836111a7565b915060208301358015158114611278575f80fd5b809150509250929050565b7f4e487b71000000000000000000000000000000000000000000000000000000005f52604160045260245ffd5b5f805f80608085870312156112c3575f80fd5b6112cc856111a7565b93506112da602086016111a7565b925060408501359150606085013567ffffffffffffffff8111156112fc575f80fd5b8501601f8101871361130c575f80fd5b803567ffffffffffffffff81111561132657611326611283565b6040517fffffffffffffffffffffffffffffffffffffffffffffffffffffffffffffffe0603f7fffffffffffffffffffffffffffffffffffffffffffffffffffffffffffffffe0601f8501160116810181811067ffffffffffffffff8211171561139257611392611283565b6040528181528282016020018910156113a9575f80fd5b816020840160208301375f6020838301015280935050505092959194509250565b5f80604083850312156113db575f80fd5b6113e4836111a7565b91506113f2602084016111a7565b90509250929050565b600181811c9082168061140f57607f821691505b602082108103611446577f4e487b71000000000000000000000000000000000000000000000000000000005f52602260045260245ffd5b50919050565b5f7fffffffffffffffffffffffffffffffffffffffffffffffffffffffffffffffff82036114a1577f4e487b71000000000000000000000000000000000000000000000000000000005f52601160045260245ffd5b5060010190565b5f81518060208401855e5f93019283525090919050565b5f6110df6114cd83866114a8565b846114a8565b73ffffffffffffffffffffffffffffffffffffffff8516815273ffffffffffffffffffffffffffffffffffffffff84166020820152826040820152608060608201525f6115236080830184611132565b9695505050505050565b5f6020828403121561153d575f80fd5b8151610686816110e756fea2646970667358221220f2905a115350fe4ccee44f487f7cd3e5c5e55cee4fd6d45daf477201bb388f2b64736f6c634300081a0033","linkReferences":{}},"methodIdentifiers":{"approve(address,uint256)":"095ea7b3","balanceOf(address)":"70a08231","getApproved(uint256)":"081812fc","isApprovedForAll(address,address)":"e985e9c5","mint(address)":"6a627842","name()":"06fdde03","nextTokenId()":"75794a3c","ownerOf(uint256)":"6352211e","safeTransferFrom(address,address,uint256)":"42842e0e","safeTransferFrom(address,address,uint256,bytes)":"b88d4fde","setApprovalForAll(address,bool)":"a22cb465","supportsInterface(bytes4)":"01ffc9a7","symbol()":"95d89b41","tokenURI(uint256)":"c87b56dd","transferFrom(address,address,uint256)":"23b872dd"},"id":1}