{"abi":[{"type":"constructor","inputs":[{"name":"initialOwner","type":"address","internalType":"address"},{"name":"_originalTokenId","type":"uint256","internalType":"uint256"},{"name":"_licenseFee","type":"uint256","internalType":"uint256"},{"name":"_ipTokenAddress","type":"address","internalType":"address"}],"stateMutability":"nonpayable"},{"type":"receive","stateMutability":"payable"},{"type":"function","name":"approve","inputs":[{"name":"to","type":"address","internalType":"address"},{"name":"tokenId","type":"uint256","internalType":"uint256"}],"outputs":[],"stateMutability":"nonpayable"},{"type":"function","name":"balanceOf","inputs":[{"name":"owner","type":"address","internalType":"address"}],"outputs":[{"name":"","type":"uint256","internalType":"uint256"}],"stateMutability":"view"},{"type":"function","name":"createDerivativeWork","inputs":[{"name":"title","type":"string","internalType":"string"},{"name":"imageUrl","type":"string","internalType":"string"},{"name":"description","type":"string","internalType":"string"},{"name":"ipfsMetadata","type":"string","internalType":"string"},{"name":"licenseId","type":"uint256","internalType":"uint256"}],"outputs":[{"name":"","type":"uint256","internalType":"uint256"}],"stateMutability":"nonpayable"},{"type":"function","name":"derivatives","inputs":[{"name":"","type":"uint256","internalType":"uint256"}],"outputs":[{"name":"title","type":"string","internalType":"string"},{"name":"creator","type":"address","internalType":"address"},{"name":"createdAt","type":"uint256","internalType":"uint256"},{"name":"imageUrl","type":"string","internalType":"string"},{"name":"description","type":"string","internalType":"string"},{"name":"licenseType","type":"uint8","internalType":"enum DerivativeWorks.LicenseType"},{"name":"status","type":"uint8","internalType":"enum DerivativeWorks.Status"},{"name":"ipfsMetadata","type":"string","internalType":"string"},{"name":"originalIPOwner","type":"address","internalType":"address"},{"name":"originalTokenId","type":"uint256","internalType":"uint256"},{"name":"licenseId","type":"uint256","internalType":"uint256"}],"stateMutability":"view"},{"type":"function","name":"getApproved","inputs":[{"name":"tokenId","type":"uint256","internalType":"uint256"}],"outputs":[{"name":"","type":"address","internalType":"address"}],"stateMutability":"view"},{"type":"function","name":"getDerivativeCount","inputs":[],"outputs":[{"name":"","type":"uint256","internalType":"uint256"}],"stateMutability":"view"},{"type":"function","name":"getDerivativeWork","inputs":[{"name":"tokenId","type":"uint256","internalType":"uint256"}],"outputs":[{"name":"title","type":"string","internalType":"string"},{"name":"creator","type":"address","internalType":"address"},{"name":"createdAt","type":"uint256","internalType":"uint256"},{"name":"imageUrl","type":"string","internalType":"string"},{"name":"description","type":"string","internalType":"string"},{"name":"licenseType","type":"uint8","internalType":"enum DerivativeWorks.LicenseType"},{"name":"status","type":"uint8","internalType":"enum DerivativeWorks.Status"},{"name":"ipfsMetadata","type":"string","internalType":"string"},{"name":"workOriginalIPOwner","type":"address","internalType":"address"},{"name":"workOriginalTokenId","type":"uint256","internalType":"uint256"},{"name":"licenseId","type":"uint256","internalType":"uint256"}],"stateMutability":"view"},{"type":"function","name":"getHolderLicenses","inputs":[{"name":"holder","type":"address","internalType":"address"}],"outputs":[{"name":"","type":"uint256[]","internalType":"uint256[]"}],"stateMutability":"view"},{"type":"function","name":"getLicense","inputs":[{"name":"licenseId","type":"uint256","internalType":"uint256"}],"outputs":[{"name":"holder","type":"address","internalType":"address"},{"name":"originalTokenId","type":"uint256","internalType":"uint256"},{"name":"licenseType","type":"uint8","internalType":"enum DerivativeWorks.LicenseType"},{"name":"issuedAt","type":"uint256","internalType":"uint256"},{"name":"isValid","type":"bool","internalType":"bool"}],"stateMutability":"view"},{"type":"function","name":"getLicenseCount","inputs":[],"outputs":[{"name":"","type":"uint256","internalType":"uint256"}],"stateMutability":"view"},{"type":"function","name":"getLicenseDerivatives","inputs":[{"name":"licenseId","type":"uint256","internalType":"uint256"}],"outputs":[{"name":"","type":"uint256[]","internalType":"uint256[]"}],"stateMutability":"view"},{"type":"function","name":"holderLicenses","inputs":[{"name":"","type":"address","internalType":"address"},{"name":"","type":"uint256","internalType":"uint256"}],"outputs":[{"name":"","type":"uint256","internalType":"uint256"}],"stateMutability":"view"},{"type":"function","name":"ipToken","inputs":[],"outputs":[{"name":"","type":"address","internalType":"contract IERC20"}],"stateMutability":"view"},{"type":"function","name":"isApprovedForAll","inputs":[{"name":"owner","type":"address","internalType":"address"},{"name":"operator","type":"address","internalType":"address"}],"outputs":[{"name":"","type":"bool","internalType":"bool"}],"stateMutability":"view"},{"type":"function","name":"licenseDerivatives","inputs":[{"name":"","type":"uint256","internalType":"uint256"},{"name":"","type":"uint256","internalType":"uint256"}],"outputs":[{"name":"","type":"uint256","internalType":"uint256"}],"stateMutability":"view"},{"type":"function","name":"licenseFee","inputs":[],"outputs":[{"name":"","type":"uint256","internalType":"uint256"}],"stateMutability":"view"},{"type":"function","name":"licenses","inputs":[{"name":"","type":"uint256","internalType":"uint256"}],"outputs":[{"name":"holder","type":"address","internalType":"address"},{"name":"originalTokenId","type":"uint256","internalType":"uint256"},{"name":"licenseType","type":"uint8","internalType":"enum DerivativeWorks.LicenseType"},{"name":"issuedAt","type":"uint256","internalType":"uint256"},{"name":"isValid","type":"bool","internalType":"bool"}],"stateMutability":"view"},{"type":"function","name":"mintLicense","inputs":[{"name":"licenseType","type":"uint8","internalType":"enum DerivativeWorks.LicenseType"}],"outputs":[{"name":"","type":"uint256","internalType":"uint256"}],"stateMutability":"nonpayable"},{"type":"function","name":"name","inputs":[],"outputs":[{"name":"","type":"string","internalType":"string"}],"stateMutability":"view"},{"type":"function","name":"originalIPOwner","inputs":[],"outputs":[{"name":"","type":"address","internalType":"address"}],"stateMutability":"view"},{"type":"function","name":"originalTokenId","inputs":[],"outputs":[{"name":"","type":"uint256","internalType":"uint256"}],"stateMutability":"view"},{"type":"function","name":"owner","inputs":[],"outputs":[{"name":"","type":"address","internalType":"address"}],"stateMutability":"view"},{"type":"function","name":"ownerOf","inputs":[{"name":"tokenId","type":"uint256","internalType":"uint256"}],"outputs":[{"name":"","type":"address","internalType":"address"}],"stateMutability":"view"},{"type":"function","name":"renounceOwnership","inputs":[],"outputs":[],"stateMutability":"nonpayable"},{"type":"function","name":"safeTransferFrom","inputs":[{"name":"from","type":"address","internalType":"address"},{"name":"to","type":"address","internalType":"address"},{"name":"tokenId","type":"uint256","internalType":"uint256"}],"outputs":[],"stateMutability":"nonpayable"},{"type":"function","name":"safeTransferFrom","inputs":[{"name":"from","type":"address","internalType":"address"},{"name":"to","type":"address","internalType":"address"},{"name":"tokenId","type":"uint256","internalType":"uint256"},{"name":"data","type":"bytes","internalType":"bytes"}],"outputs":[],"stateMutability":"nonpayable"},{"type":"function","name":"setApprovalForAll","inputs":[{"name":"operator","type":"address","internalType":"address"},{"name":"approved","type":"bool","internalType":"bool"}],"outputs":[],"stateMutability":"nonpayable"},{"type":"function","name":"setLicenseFee","inputs":[{"name":"_newFee","type":"uint256","internalType":"uint256"}],"outputs":[],"stateMutability":"nonpayable"},{"type":"function","name":"supportsInterface","inputs":[{"name":"interfaceId","type":"bytes4","internalType":"bytes4"}],"outputs":[{"name":"","type":"bool","internalType":"bool"}],"stateMutability":"view"},{"type":"function","name":"symbol","inputs":[],"outputs":[{"name":"","type":"string","internalType":"string"}],"stateMutability":"view"},{"type":"function","name":"tokenURI","inputs":[{"name":"tokenId","type":"uint256","internalType":"uint256"}],"outputs":[{"name":"","type":"string","internalType":"string"}],"stateMutability":"view"},{"type":"function","name":"transferFrom","inputs":[{"name":"from","type":"address","internalType":"address"},{"name":"to","type":"address","internalType":"address"},{"name":"tokenId","type":"uint256","internalType":"uint256"}],"outputs":[],"stateMutability":"nonpayable"},{"type":"function","name":"transferOwnership","inputs":[{"name":"newOwner","type":"address","internalType":"address"}],"outputs":[],"stateMutability":"nonpayable"},{"type":"function","name":"updateDerivativeStatus","inputs":[{"name":"tokenId","type":"uint256","internalType":"uint256"},{"name":"newStatus","type":"uint8","internalType":"enum DerivativeWorks.Status"}],"outputs":[],"stateMutability":"nonpayable"},{"type":"event","name":"Approval","inputs":[{"name":"owner","type":"address","indexed":true,"internalType":"address"},{"name":"approved","type":"address","indexed":true,"internalType":"address"},{"name":"tokenId","type":"uint256","indexed":true,"internalType":"uint256"}],"anonymous":false},{"type":"event","name":"ApprovalForAll","inputs":[{"name":"owner","type":"address","indexed":true,"internalType":"address"},{"name":"operator","type":"address","indexed":true,"internalType":"address"},{"name":"approved","type":"bool","indexed":false,"internalType":"bool"}],"anonymous":false},{"type":"event","name":"DerivativeWorkCreated","inputs":[{"name":"tokenId","type":"uint256","indexed":true,"internalType":"uint256"},{"name":"title","type":"string","indexed":false,"internalType":"string"},{"name":"creator","type":"address","indexed":true,"internalType":"address"},{"name":"licenseType","type":"uint8","indexed":false,"internalType":"enum DerivativeWorks.LicenseType"},{"name":"status","type":"uint8","indexed":false,"internalType":"enum DerivativeWorks.Status"},{"name":"licenseId","type":"uint256","indexed":true,"internalType":"uint256"}],"anonymous":false},{"type":"event","name":"DerivativeWorkStatusUpdated","inputs":[{"name":"tokenId","type":"uint256","indexed":true,"internalType":"uint256"},{"name":"status","type":"uint8","indexed":false,"internalType":"enum DerivativeWorks.Status"}],"anonymous":false},{"type":"event","name":"LicenseFeeUpdated","inputs":[{"name":"oldFee","type":"uint256","indexed":false,"internalType":"uint256"},{"name":"newFee","type":"uint256","indexed":false,"internalType":"uint256"}],"anonymous":false},{"type":"event","name":"LicenseMinted","inputs":[{"name":"licenseId","type":"uint256","indexed":true,"internalType":"uint256"},{"name":"holder","type":"address","indexed":true,"internalType":"address"},{"name":"licenseType","type":"uint8","indexed":false,"internalType":"enum DerivativeWorks.LicenseType"}],"anonymous":false},{"type":"event","name":"OwnershipTransferred","inputs":[{"name":"previousOwner","type":"address","indexed":true,"internalType":"address"},{"name":"newOwner","type":"address","indexed":true,"internalType":"address"}],"anonymous":false},{"type":"event","name":"Transfer","inputs":[{"name":"from","type":"address","indexed":true,"internalType":"address"},{"name":"to","type":"address","indexed":true,"internalType":"address"},{"name":"tokenId","type":"uint256","indexed":true,"internalType":"uint256"}],"anonymous":false},{"type":"error","name":"ERC721IncorrectOwner","inputs":[{"name":"sender","type":"address","internalType":"address"},{"name":"tokenId","type":"uint256","internalType":"uint256"},{"name":"owner","type":"address","internalType":"address"}]},{"type":"error","name":"ERC721InsufficientApproval","inputs":[{"name":"operator","type":"address","internalType":"address"},{"name":"tokenId","type":"uint256","internalType":"uint256"}]},{"type":"error","name":"ERC721InvalidApprover","inputs":[{"name":"approver","type":"address","internalType":"address"}]},{"type":"error","name":"ERC721InvalidOperator","inputs":[{"name":"operator","type":"address","internalType":"address"}]},{"type":"error","name":"ERC721InvalidOwner","inputs":[{"name":"owner","type":"address","internalType":"address"}]},{"type":"error","name":"ERC721InvalidReceiver","inputs":[{"name":"receiver","type":"address","internalType":"address"}]},{"type":"error","name":"ERC721InvalidSender","inputs":[{"name":"sender","type":"address","internalType":"address"}]},{"type":"error","name":"ERC721NonexistentToken","inputs":[{"name":"tokenId","type":"uint256","internalType":"uint256"}]},{"type":"error","name":"OwnableInvalidOwner","inputs":[{"name":"owner","type":"address","internalType":"address"}]},{"type":"error","name":"OwnableUnauthorizedAccount","inputs":[{"name":"account","type":"address","internalType":"address"}]}],"bytecode":{"object":"0x608060405234801561000f575f80fd5b5060405161344138038061344183398101604081905261002e91610171565b836040518060400160405280600f81526020016e44657269766174697665576f726b7360881b8152506040518060400160405280600381526020016244525760e81b815250815f9081610081919061024d565b50600161008e828261024d565b5050506001600160a01b0381166100be57604051631e4fbdf760e01b81525f600482015260240160405180910390fd5b6100c781610105565b50600b80546001600160a01b039586166001600160a01b031991821617909155600c93909355600a9190915560098054919093169116179055610307565b600680546001600160a01b038381166001600160a01b0319831681179093556040519116919082907f8be0079c531659141344cd1fd0a4f28419497f9722a3daafe3b4186f6b6457e0905f90a35050565b80516001600160a01b038116811461016c575f80fd5b919050565b5f805f8060808587031215610184575f80fd5b61018d85610156565b60208601516040870151919550935091506101aa60608601610156565b905092959194509250565b634e487b7160e01b5f52604160045260245ffd5b600181811c908216806101dd57607f821691505b6020821081036101fb57634e487b7160e01b5f52602260045260245ffd5b50919050565b601f82111561024857805f5260205f20601f840160051c810160208510156102265750805b601f840160051c820191505b81811015610245575f8155600101610232565b50505b505050565b81516001600160401b03811115610266576102666101b5565b61027a8161027484546101c9565b84610201565b6020601f8211600181146102ac575f83156102955750848201515b5f19600385901b1c1916600184901b178455610245565b5f84815260208120601f198516915b828110156102db57878501518255602094850194600190920191016102bb565b50848210156102f857868401515f19600387901b60f8161c191681555b50505050600190811b01905550565b61312d806103145f395ff3fe608060405260043610610212575f3560e01c80638da5cb5b11610117578063b88d4fde116100ac578063c87b56dd1161007c578063ed07b94811610062578063ed07b948146106be578063eda16940146106dd578063f2fde38b146106fc575f80fd5b8063c87b56dd1461064b578063e985e9c51461066a575f80fd5b8063b88d4fde146105b5578063ba35971e146105d4578063c0046e3914610600578063c17915df14610636575f80fd5b8063a842243e116100e7578063a842243e14610541578063a9d9d0c71461056d578063b000207814610582578063b2dd121214610596575f80fd5b80638da5cb5b146104c557806395d89b41146104ef57806398eb3aaa14610503578063a22cb46514610522575f80fd5b806323b872dd116101a7578063567b04001161017757806370a082311161015d57806370a0823114610473578063715018a614610492578063810eebaa146104a6575f80fd5b8063567b0400146104355780636352211e14610454575f80fd5b806323b872dd14610356578063337908451461037557806342842e0e146103ea57806355a8933e14610409575f80fd5b8063095ea7b3116101e2578063095ea7b3146102e35780630e3b550e1461030457806310c8434d146103235780631b787d7814610337575f80fd5b806301ffc9a71461021d57806304636a101461025157806306fdde031461027e578063081812fc1461029f575f80fd5b3661021957005b5f80fd5b348015610228575f80fd5b5061023c610237366004612882565b61071b565b60405190151581526020015b60405180910390f35b34801561025c575f80fd5b5061027061026b3660046128c5565b6107ff565b604051908152602001610248565b348015610289575f80fd5b5061029261082a565b6040516102489190612939565b3480156102aa575f80fd5b506102be6102b936600461294b565b6108b9565b60405173ffffffffffffffffffffffffffffffffffffffff9091168152602001610248565b3480156102ee575f80fd5b506103026102fd3660046128c5565b6108ed565b005b34801561030f575f80fd5b5061030261031e366004612962565b6108fc565b34801561032e575f80fd5b50600854610270565b348015610342575f80fd5b50610270610351366004612993565b610b05565b348015610361575f80fd5b506103026103703660046129b3565b610b1e565b348015610380575f80fd5b506103d961038f36600461294b565b600d6020525f90815260409020805460018201546002830154600384015460049094015473ffffffffffffffffffffffffffffffffffffffff90931693919260ff91821692911685565b604051610248959493929190612a2e565b3480156103f5575f80fd5b506103026104043660046129b3565b610c0d565b348015610414575f80fd5b5061042861042336600461294b565b610c2c565b6040516102489190612a77565b348015610440575f80fd5b5061030261044f36600461294b565b610c8b565b34801561045f575f80fd5b506102be61046e36600461294b565b610cd8565b34801561047e575f80fd5b5061027061048d366004612ab9565b610ce2565b34801561049d575f80fd5b50610302610d5a565b3480156104b1575f80fd5b506104286104c0366004612ab9565b610d6d565b3480156104d0575f80fd5b5060065473ffffffffffffffffffffffffffffffffffffffff166102be565b3480156104fa575f80fd5b50610292610de1565b34801561050e575f80fd5b5061027061051d366004612bb2565b610df0565b34801561052d575f80fd5b5061030261053c366004612c7f565b61122a565b34801561054c575f80fd5b50600b546102be9073ffffffffffffffffffffffffffffffffffffffff1681565b348015610578575f80fd5b50610270600a5481565b34801561058d575f80fd5b50600754610270565b3480156105a1575f80fd5b506103d96105b036600461294b565b611235565b3480156105c0575f80fd5b506103026105cf366004612ca9565b6112f8565b3480156105df575f80fd5b506009546102be9073ffffffffffffffffffffffffffffffffffffffff1681565b34801561060b575f80fd5b5061061f61061a36600461294b565b611310565b6040516102489b9a99989796959493929190612d30565b348015610641575f80fd5b50610270600c5481565b348015610656575f80fd5b5061029261066536600461294b565b6115b6565b348015610675575f80fd5b5061023c610684366004612df7565b73ffffffffffffffffffffffffffffffffffffffff9182165f90815260056020908152604080832093909416825291909152205460ff1690565b3480156106c9575f80fd5b506102706106d8366004612e28565b611627565b3480156106e8575f80fd5b5061061f6106f736600461294b565b6118d0565b348015610707575f80fd5b50610302610716366004612ab9565b611c9f565b5f7fffffffff0000000000000000000000000000000000000000000000000000000082167f80ac58cd0000000000000000000000000000000000000000000000000000000014806107ad57507fffffffff0000000000000000000000000000000000000000000000000000000082167f5b5e139f00000000000000000000000000000000000000000000000000000000145b806107f957507f01ffc9a7000000000000000000000000000000000000000000000000000000007fffffffff000000000000000000000000000000000000000000000000000000008316145b92915050565b600f602052815f5260405f208181548110610818575f80fd5b905f5260205f20015f91509150505481565b60605f805461083890612e46565b80601f016020809104026020016040519081016040528092919081815260200182805461086490612e46565b80156108af5780601f10610886576101008083540402835291602001916108af565b820191905f5260205f20905b81548152906001019060200180831161089257829003601f168201915b5050505050905090565b5f6108c382611d02565b505f8281526004602052604090205473ffffffffffffffffffffffffffffffffffffffff166107f9565b6108f8828233611d60565b5050565b5f828152600e60205260409020600b5473ffffffffffffffffffffffffffffffffffffffff16331480610946575060065473ffffffffffffffffffffffffffffffffffffffff1633145b6109d7576040517f08c379a000000000000000000000000000000000000000000000000000000000815260206004820152603a60248201527f4f6e6c79206f726967696e616c204950206f776e6572206f7220636f6e74726160448201527f6374206f776e65722063616e207570646174652073746174757300000000000060648201526084015b60405180910390fd5b5f6005820154610100900460ff1660028111156109f6576109f66129ed565b14610a83576040517f08c379a000000000000000000000000000000000000000000000000000000000815260206004820152602360248201527f43616e206f6e6c79207570646174652070656e64696e6720646572697661746960448201527f766573000000000000000000000000000000000000000000000000000000000060648201526084016109ce565b6005810180548391907fffffffffffffffffffffffffffffffffffffffffffffffffffffffffffff00ff16610100836002811115610ac357610ac36129ed565b0217905550827f56a56bd8f36b54b38230e47f4bc6ca4a8099aa8239b9f3997b3c8f4d8813cf0383604051610af89190612e97565b60405180910390a2505050565b6010602052815f5260405f208181548110610818575f80fd5b73ffffffffffffffffffffffffffffffffffffffff8216610b6d576040517f64a0ae920000000000000000000000000000000000000000000000000000000081525f60048201526024016109ce565b5f610b79838333611d6d565b90508373ffffffffffffffffffffffffffffffffffffffff168173ffffffffffffffffffffffffffffffffffffffff1614610c07576040517f64283d7b00000000000000000000000000000000000000000000000000000000815273ffffffffffffffffffffffffffffffffffffffff808616600483015260248201849052821660448201526064016109ce565b50505050565b610c2783838360405180602001604052805f8152506112f8565b505050565b5f81815260106020908152604091829020805483518184028101840190945280845260609392830182828015610c7f57602002820191905f5260205f20905b815481526020019060010190808311610c6b575b50505050509050919050565b610c93611ee4565b600a80549082905560408051828152602081018490527fa883023c0aa0bd75b143643fb8e9434a4399e05d22136bea6373cbfa1883e60e910160405180910390a15050565b5f6107f982611d02565b5f73ffffffffffffffffffffffffffffffffffffffff8216610d32576040517f89c62b640000000000000000000000000000000000000000000000000000000081525f60048201526024016109ce565b5073ffffffffffffffffffffffffffffffffffffffff165f9081526003602052604090205490565b610d62611ee4565b610d6b5f611f37565b565b73ffffffffffffffffffffffffffffffffffffffff81165f908152600f6020908152604091829020805483518184028101840190945280845260609392830182828015610c7f57602002820191905f5260205f2090815481526020019060010190808311610c6b5750505050509050919050565b60606001805461083890612e46565b5f818152600d60209081526040808320815160a081018352815473ffffffffffffffffffffffffffffffffffffffff1681526001808301549482019490945260028201548594919384019160ff90911690811115610e5057610e506129ed565b6001811115610e6157610e616129ed565b81526003820154602082015260049091015460ff161515604090910152805190915073ffffffffffffffffffffffffffffffffffffffff163314610f01576040517f08c379a000000000000000000000000000000000000000000000000000000000815260206004820152601460248201527f4d757374206f776e20746865206c6963656e736500000000000000000000000060448201526064016109ce565b8060800151610f6c576040517f08c379a000000000000000000000000000000000000000000000000000000000815260206004820152601460248201527f4c6963656e7365206973206e6f742076616c696400000000000000000000000060448201526064016109ce565b6007805460019081019182905560408051610160810182528a81523360208201524281830152606081018a905260808101899052908401515f9260a083019190811115610fbb57610fbb6129ed565b81525f602080830182905260408084018b9052600b5473ffffffffffffffffffffffffffffffffffffffff166060850152600c54608085015260a0909301899052858252600e9052208151919250829181906110179082612ee9565b5060208201516001820180547fffffffffffffffffffffffff00000000000000000000000000000000000000001673ffffffffffffffffffffffffffffffffffffffff90921691909117905560408201516002820155606082015160038201906110819082612ee9565b50608082015160048201906110969082612ee9565b5060a08201516005820180547fffffffffffffffffffffffffffffffffffffffffffffffffffffffffffffff0016600183818111156110d7576110d76129ed565b021790555060c08201516005820180547fffffffffffffffffffffffffffffffffffffffffffffffffffffffffffff00ff1661010083600281111561111e5761111e6129ed565b021790555060e082015160068201906111379082612ee9565b506101008201516007820180547fffffffffffffffffffffffff00000000000000000000000000000000000000001673ffffffffffffffffffffffffffffffffffffffff9092169190911790556101208201516008820155610140909101516009909101555f858152601060209081526040822080546001810182559083529120018290556111c63383611fad565b843373ffffffffffffffffffffffffffffffffffffffff16837fcc8f1ac95d1e0cddc306755166e92c5a1f5be6bb8f20173ccd29599381ff6e4e8c87604001515f60405161121693929190613000565b60405180910390a450979650505050505050565b6108f8338383611fc6565b5f818152600d60209081526040808320815160a081018352815473ffffffffffffffffffffffffffffffffffffffff168152600180830154948201949094526002820154859485948594859485949093919284019160ff9091169081111561129f5761129f6129ed565b60018111156112b0576112b06129ed565b8152600382015460208083019190915260049092015460ff161515604091820152825191830151908301516060840151608090940151929b919a509850919650945092505050565b611303848484610b1e565b610c0733858585856120c2565b600e6020525f908152604090208054819061132a90612e46565b80601f016020809104026020016040519081016040528092919081815260200182805461135690612e46565b80156113a15780601f10611378576101008083540402835291602001916113a1565b820191905f5260205f20905b81548152906001019060200180831161138457829003601f168201915b5050505060018301546002840154600385018054949573ffffffffffffffffffffffffffffffffffffffff90931694919350906113dd90612e46565b80601f016020809104026020016040519081016040528092919081815260200182805461140990612e46565b80156114545780601f1061142b57610100808354040283529160200191611454565b820191905f5260205f20905b81548152906001019060200180831161143757829003601f168201915b50505050509080600401805461146990612e46565b80601f016020809104026020016040519081016040528092919081815260200182805461149590612e46565b80156114e05780601f106114b7576101008083540402835291602001916114e0565b820191905f5260205f20905b8154815290600101906020018083116114c357829003601f168201915b505050506005830154600684018054939460ff808416956101009094041693509161150a90612e46565b80601f016020809104026020016040519081016040528092919081815260200182805461153690612e46565b80156115815780601f1061155857610100808354040283529160200191611581565b820191905f5260205f20905b81548152906001019060200180831161156457829003601f168201915b5050505060078301546008840154600990940154929373ffffffffffffffffffffffffffffffffffffffff909116929091508b565b60606115c182611d02565b505f6115d760408051602081019091525f815290565b90505f8151116115f55760405180602001604052805f815250611620565b806115ff846122b8565b604051602001611610929190613045565b6040516020818303038152906040525b9392505050565b600954600b54600a546040517f23b872dd00000000000000000000000000000000000000000000000000000000815233600482015273ffffffffffffffffffffffffffffffffffffffff928316602482015260448101919091525f9291909116906323b872dd906064016020604051808303815f875af11580156116ad573d5f803e3d5ffd5b505050506040513d601f19601f820116820180604052508101906116d19190613059565b611737576040517f08c379a000000000000000000000000000000000000000000000000000000000815260206004820152601860248201527f495020746f6b656e207472616e73666572206661696c6564000000000000000060448201526064016109ce565b600880546001908101918290556040805160a081018252338152600c5460208201525f9290918201908690811115611771576117716129ed565b815242602080830191909152600160409283018190525f868152600d8352839020845181547fffffffffffffffffffffffff00000000000000000000000000000000000000001673ffffffffffffffffffffffffffffffffffffffff90911617815591840151828201559183015160028201805494955085949293919290917fffffffffffffffffffffffffffffffffffffffffffffffffffffffffffffff00909116908381811115611826576118266129ed565b021790555060608201516003820155608090910151600490910180547fffffffffffffffffffffffffffffffffffffffffffffffffffffffffffffff0016911515919091179055335f818152600f60209081526040808320805460018101825590845291909220018490555183907f769fc1ee439110bb6886d36221cd779e932a13526df1db3df93dd0a6af19da4a906118c1908890613074565b60405180910390a35092915050565b60605f806060805f8060605f805f80600e5f8e81526020019081526020015f20604051806101600160405290815f8201805461190b90612e46565b80601f016020809104026020016040519081016040528092919081815260200182805461193790612e46565b80156119825780601f1061195957610100808354040283529160200191611982565b820191905f5260205f20905b81548152906001019060200180831161196557829003601f168201915b5050509183525050600182015473ffffffffffffffffffffffffffffffffffffffff166020820152600282015460408201526003820180546060909201916119c990612e46565b80601f01602080910402602001604051908101604052809291908181526020018280546119f590612e46565b8015611a405780601f10611a1757610100808354040283529160200191611a40565b820191905f5260205f20905b815481529060010190602001808311611a2357829003601f168201915b50505050508152602001600482018054611a5990612e46565b80601f0160208091040260200160405190810160405280929190818152602001828054611a8590612e46565b8015611ad05780601f10611aa757610100808354040283529160200191611ad0565b820191905f5260205f20905b815481529060010190602001808311611ab357829003601f168201915b5050509183525050600582015460209091019060ff166001811115611af757611af76129ed565b6001811115611b0857611b086129ed565b81526020016005820160019054906101000a900460ff166002811115611b3057611b306129ed565b6002811115611b4157611b416129ed565b8152602001600682018054611b5590612e46565b80601f0160208091040260200160405190810160405280929190818152602001828054611b8190612e46565b8015611bcc5780601f10611ba357610100808354040283529160200191611bcc565b820191905f5260205f20905b815481529060010190602001808311611baf57829003601f168201915b50505050508152602001600782015f9054906101000a900473ffffffffffffffffffffffffffffffffffffffff1673ffffffffffffffffffffffffffffffffffffffff1673ffffffffffffffffffffffffffffffffffffffff168152602001600882015481526020016009820154815250509050805f015181602001518260400151836060015184608001518560a001518660c001518760e001518861010001518961012001518a61014001519b509b509b509b509b509b509b509b509b509b509b505091939597999b90929496989a50565b611ca7611ee4565b73ffffffffffffffffffffffffffffffffffffffff8116611cf6576040517f1e4fbdf70000000000000000000000000000000000000000000000000000000081525f60048201526024016109ce565b611cff81611f37565b50565b5f8181526002602052604081205473ffffffffffffffffffffffffffffffffffffffff16806107f9576040517f7e273289000000000000000000000000000000000000000000000000000000008152600481018490526024016109ce565b610c278383836001612374565b5f8281526002602052604081205473ffffffffffffffffffffffffffffffffffffffff90811690831615611da657611da681848661253c565b73ffffffffffffffffffffffffffffffffffffffff811615611e1957611dce5f855f80612374565b73ffffffffffffffffffffffffffffffffffffffff81165f90815260036020526040902080547fffffffffffffffffffffffffffffffffffffffffffffffffffffffffffffffff0190555b73ffffffffffffffffffffffffffffffffffffffff851615611e615773ffffffffffffffffffffffffffffffffffffffff85165f908152600360205260409020805460010190555b5f8481526002602052604080822080547fffffffffffffffffffffffff00000000000000000000000000000000000000001673ffffffffffffffffffffffffffffffffffffffff89811691821790925591518793918516917fddf252ad1be2c89b69c2b068fc378daa952ba7f163c4a11628f55a4df523b3ef91a4949350505050565b60065473ffffffffffffffffffffffffffffffffffffffff163314610d6b576040517f118cdaa70000000000000000000000000000000000000000000000000000000081523360048201526024016109ce565b6006805473ffffffffffffffffffffffffffffffffffffffff8381167fffffffffffffffffffffffff0000000000000000000000000000000000000000831681179093556040519116919082907f8be0079c531659141344cd1fd0a4f28419497f9722a3daafe3b4186f6b6457e0905f90a35050565b6108f8828260405180602001604052805f8152506125ec565b73ffffffffffffffffffffffffffffffffffffffff821661202b576040517f5b08ba1800000000000000000000000000000000000000000000000000000000815273ffffffffffffffffffffffffffffffffffffffff831660048201526024016109ce565b73ffffffffffffffffffffffffffffffffffffffff8381165f8181526005602090815260408083209487168084529482529182902080547fffffffffffffffffffffffffffffffffffffffffffffffffffffffffffffff001686151590811790915591519182527f17307eab39ab6107e8899845ad3d59bd9653f200f220920489ca2b5937696c31910160405180910390a3505050565b73ffffffffffffffffffffffffffffffffffffffff83163b156122b1576040517f150b7a0200000000000000000000000000000000000000000000000000000000815273ffffffffffffffffffffffffffffffffffffffff84169063150b7a0290612137908890889087908790600401613082565b6020604051808303815f875af192505050801561218f575060408051601f3d9081017fffffffffffffffffffffffffffffffffffffffffffffffffffffffffffffffe016820190925261218c918101906130dc565b60015b61221c573d8080156121bc576040519150601f19603f3d011682016040523d82523d5f602084013e6121c1565b606091505b5080515f03612214576040517f64a0ae9200000000000000000000000000000000000000000000000000000000815273ffffffffffffffffffffffffffffffffffffffff851660048201526024016109ce565b805181602001fd5b7fffffffff0000000000000000000000000000000000000000000000000000000081167f150b7a0200000000000000000000000000000000000000000000000000000000146122af576040517f64a0ae9200000000000000000000000000000000000000000000000000000000815273ffffffffffffffffffffffffffffffffffffffff851660048201526024016109ce565b505b5050505050565b60605f6122c483612603565b60010190505f8167ffffffffffffffff8111156122e3576122e3612ad2565b6040519080825280601f01601f19166020018201604052801561230d576020820181803683370190505b5090508181016020015b7fffffffffffffffffffffffffffffffffffffffffffffffffffffffffffffffff017f3031323334353637383961626364656600000000000000000000000000000000600a86061a8153600a850494508461231757509392505050565b8080612395575073ffffffffffffffffffffffffffffffffffffffff821615155b156124e8575f6123a484611d02565b905073ffffffffffffffffffffffffffffffffffffffff8316158015906123f757508273ffffffffffffffffffffffffffffffffffffffff168173ffffffffffffffffffffffffffffffffffffffff1614155b8015612435575073ffffffffffffffffffffffffffffffffffffffff8082165f9081526005602090815260408083209387168352929052205460ff16155b15612484576040517fa9fbf51f00000000000000000000000000000000000000000000000000000000815273ffffffffffffffffffffffffffffffffffffffff841660048201526024016109ce565b81156124e657838573ffffffffffffffffffffffffffffffffffffffff168273ffffffffffffffffffffffffffffffffffffffff167f8c5be1e5ebec7d5bd14f71427d1e84f3dd0314c0f7b2291e5b200ac8c7c3b92560405160405180910390a45b505b50505f90815260046020526040902080547fffffffffffffffffffffffff00000000000000000000000000000000000000001673ffffffffffffffffffffffffffffffffffffffff92909216919091179055565b6125478383836126e4565b610c275773ffffffffffffffffffffffffffffffffffffffff831661259b576040517f7e273289000000000000000000000000000000000000000000000000000000008152600481018290526024016109ce565b6040517f177e802f00000000000000000000000000000000000000000000000000000000815273ffffffffffffffffffffffffffffffffffffffff83166004820152602481018290526044016109ce565b6125f683836127a8565b610c27335f8585856120c2565b5f807a184f03e93ff9f4daa797ed6e38ed64bf6a1f010000000000000000831061264b577a184f03e93ff9f4daa797ed6e38ed64bf6a1f010000000000000000830492506040015b6d04ee2d6d415b85acef81000000008310612677576d04ee2d6d415b85acef8100000000830492506020015b662386f26fc10000831061269557662386f26fc10000830492506010015b6305f5e10083106126ad576305f5e100830492506008015b61271083106126c157612710830492506004015b606483106126d3576064830492506002015b600a83106107f95760010192915050565b5f73ffffffffffffffffffffffffffffffffffffffff8316158015906127a057508273ffffffffffffffffffffffffffffffffffffffff168473ffffffffffffffffffffffffffffffffffffffff161480612770575073ffffffffffffffffffffffffffffffffffffffff8085165f9081526005602090815260408083209387168352929052205460ff165b806127a057505f8281526004602052604090205473ffffffffffffffffffffffffffffffffffffffff8481169116145b949350505050565b73ffffffffffffffffffffffffffffffffffffffff82166127f7576040517f64a0ae920000000000000000000000000000000000000000000000000000000081525f60048201526024016109ce565b5f61280383835f611d6d565b905073ffffffffffffffffffffffffffffffffffffffff811615610c27576040517f73c6ac6e0000000000000000000000000000000000000000000000000000000081525f60048201526024016109ce565b7fffffffff0000000000000000000000000000000000000000000000000000000081168114611cff575f80fd5b5f60208284031215612892575f80fd5b813561162081612855565b803573ffffffffffffffffffffffffffffffffffffffff811681146128c0575f80fd5b919050565b5f80604083850312156128d6575f80fd5b6128df8361289d565b946020939093013593505050565b5f81518084528060208401602086015e5f6020828601015260207fffffffffffffffffffffffffffffffffffffffffffffffffffffffffffffffe0601f83011685010191505092915050565b602081525f61162060208301846128ed565b5f6020828403121561295b575f80fd5b5035919050565b5f8060408385031215612973575f80fd5b82359150602083013560038110612988575f80fd5b809150509250929050565b5f80604083850312156129a4575f80fd5b50508035926020909101359150565b5f805f606084860312156129c5575f80fd5b6129ce8461289d565b92506129dc6020850161289d565b929592945050506040919091013590565b7f4e487b71000000000000000000000000000000000000000000000000000000005f52602160045260245ffd5b60028110612a2a57612a2a6129ed565b9052565b73ffffffffffffffffffffffffffffffffffffffff861681526020810185905260a08101612a5f6040830186612a1a565b83606083015282151560808301529695505050505050565b602080825282518282018190525f918401906040840190835b81811015612aae578351835260209384019390920191600101612a90565b509095945050505050565b5f60208284031215612ac9575f80fd5b6116208261289d565b7f4e487b71000000000000000000000000000000000000000000000000000000005f52604160045260245ffd5b5f8067ffffffffffffffff841115612b1957612b19612ad2565b506040517fffffffffffffffffffffffffffffffffffffffffffffffffffffffffffffffe0601f85018116603f0116810181811067ffffffffffffffff82111715612b6657612b66612ad2565b604052838152905080828401851015612b7d575f80fd5b838360208301375f60208583010152509392505050565b5f82601f830112612ba3575f80fd5b61162083833560208501612aff565b5f805f805f60a08688031215612bc6575f80fd5b853567ffffffffffffffff811115612bdc575f80fd5b612be888828901612b94565b955050602086013567ffffffffffffffff811115612c04575f80fd5b612c1088828901612b94565b945050604086013567ffffffffffffffff811115612c2c575f80fd5b612c3888828901612b94565b935050606086013567ffffffffffffffff811115612c54575f80fd5b612c6088828901612b94565b95989497509295608001359392505050565b8015158114611cff575f80fd5b5f8060408385031215612c90575f80fd5b612c998361289d565b9150602083013561298881612c72565b5f805f8060808587031215612cbc575f80fd5b612cc58561289d565b9350612cd36020860161289d565b925060408501359150606085013567ffffffffffffffff811115612cf5575f80fd5b8501601f81018713612d05575f80fd5b612d1487823560208401612aff565b91505092959194509250565b60038110612a2a57612a2a6129ed565b61016081525f612d4461016083018e6128ed565b73ffffffffffffffffffffffffffffffffffffffff8d1660208401528b60408401528281036060840152612d78818c6128ed565b90508281036080840152612d8c818b6128ed565b9050612d9b60a084018a612a1a565b612da860c0840189612d20565b82810360e0840152612dba81886128ed565b73ffffffffffffffffffffffffffffffffffffffff9690961661010084015250506101208101929092526101409091015298975050505050505050565b5f8060408385031215612e08575f80fd5b612e118361289d565b9150612e1f6020840161289d565b90509250929050565b5f60208284031215612e38575f80fd5b813560028110611620575f80fd5b600181811c90821680612e5a57607f821691505b602082108103612e91577f4e487b71000000000000000000000000000000000000000000000000000000005f52602260045260245ffd5b50919050565b602081016107f98284612d20565b601f821115610c2757805f5260205f20601f840160051c81016020851015612eca5750805b601f840160051c820191505b818110156122b1575f8155600101612ed6565b815167ffffffffffffffff811115612f0357612f03612ad2565b612f1781612f118454612e46565b84612ea5565b6020601f821160018114612f68575f8315612f325750848201515b7fffffffffffffffffffffffffffffffffffffffffffffffffffffffffffffffff600385901b1c1916600184901b1784556122b1565b5f848152602081207fffffffffffffffffffffffffffffffffffffffffffffffffffffffffffffffe08516915b82811015612fb55787850151825560209485019460019092019101612f95565b5084821015612ff157868401517fffffffffffffffffffffffffffffffffffffffffffffffffffffffffffffffff600387901b60f8161c191681555b50505050600190811b01905550565b606081525f61301260608301866128ed565b90506130216020830185612a1a565b6127a06040830184612d20565b5f81518060208401855e5f93019283525090919050565b5f6127a0613053838661302e565b8461302e565b5f60208284031215613069575f80fd5b815161162081612c72565b602081016107f98284612a1a565b73ffffffffffffffffffffffffffffffffffffffff8516815273ffffffffffffffffffffffffffffffffffffffff84166020820152826040820152608060608201525f6130d260808301846128ed565b9695505050505050565b5f602082840312156130ec575f80fd5b81516116208161285556fea26469706673582212202e8aeda1d1be50351c1faf0e177f516bcc6144dde63ae4ece1389da2e262f4f964736f6c634300081a0033","linkReferences":{}},"methodIdentifiers":{"approve(address,uint256)":"095ea7b3","balanceOf(address)":"70a08231","createDerivativeWork(string,string,string,string,uint256)":"98eb3aaa","derivatives(uint256)":"c0046e39","getApproved(uint256)":"081812fc","getDerivativeCount()":"b0002078","getDerivativeWork(uint256)":"eda16940","getHolderLicenses(address)":"810eebaa","getLicense(uint256)":"b2dd1212","getLicenseCount()":"10c8434d","getLicenseDerivatives(uint256)":"55a8933e","holderLicenses(address,uint256)":"04636a10","ipToken()":"ba35971e","isApprovedForAll(address,address)":"e985e9c5","licenseDerivatives(uint256,uint256)":"1b787d78","licenseFee()":"a9d9d0c7","licenses(uint256)":"33790845","mintLicense(uint8)":"ed07b948","name()":"06fdde03","originalIPOwner()":"a842243e","originalTokenId()":"c17915df","owner()":"8da5cb5b","ownerOf(uint256)":"6352211e","renounceOwnership()":"715018a6","safeTransferFrom(address,address,uint256)":"42842e0e","safeTransferFrom(address,address,uint256,bytes)":"b88d4fde","setApprovalForAll(address,bool)":"a22cb465","setLicenseFee(uint256)":"567b0400","supportsInterface(bytes4)":"01ffc9a7","symbol()":"95d89b41","tokenURI(uint256)":"c87b56dd","transferFrom(address,address,uint256)":"23b872dd","transferOwnership(address)":"f2fde38b","updateDerivativeStatus(uint256,uint8)":"0e3b550e"},"id":36}