{"abi":[{"type":"constructor","inputs":[],"stateMutability":"nonpayable"},{"type":"function","name":"approve","inputs":[{"name":"to","type":"address","internalType":"address"},{"name":"tokenId","type":"uint256","internalType":"uint256"}],"outputs":[],"stateMutability":"nonpayable"},{"type":"function","name":"balanceOf","inputs":[{"name":"owner","type":"address","internalType":"address"}],"outputs":[{"name":"","type":"uint256","internalType":"uint256"}],"stateMutability":"view"},{"type":"function","name":"getApproved","inputs":[{"name":"tokenId","type":"uint256","internalType":"uint256"}],"outputs":[{"name":"","type":"address","internalType":"address"}],"stateMutability":"view"},{"type":"function","name":"isApprovedForAll","inputs":[{"name":"owner","type":"address","internalType":"address"},{"name":"operator","type":"address","internalType":"address"}],"outputs":[{"name":"","type":"bool","internalType":"bool"}],"stateMutability":"view"},{"type":"function","name":"mint","inputs":[{"name":"to","type":"address","internalType":"address"},{"name":"uri","type":"string","internalType":"string"}],"outputs":[{"name":"","type":"uint256","internalType":"uint256"}],"stateMutability":"nonpayable"},{"type":"function","name":"name","inputs":[],"outputs":[{"name":"","type":"string","internalType":"string"}],"stateMutability":"view"},{"type":"function","name":"nextTokenId","inputs":[],"outputs":[{"name":"","type":"uint256","internalType":"uint256"}],"stateMutability":"view"},{"type":"function","name":"owner","inputs":[],"outputs":[{"name":"","type":"address","internalType":"address"}],"stateMutability":"view"},{"type":"function","name":"ownerOf","inputs":[{"name":"tokenId","type":"uint256","internalType":"uint256"}],"outputs":[{"name":"","type":"address","internalType":"address"}],"stateMutability":"view"},{"type":"function","name":"renounceOwnership","inputs":[],"outputs":[],"stateMutability":"nonpayable"},{"type":"function","name":"safeTransferFrom","inputs":[{"name":"from","type":"address","internalType":"address"},{"name":"to","type":"address","internalType":"address"},{"name":"tokenId","type":"uint256","internalType":"uint256"}],"outputs":[],"stateMutability":"nonpayable"},{"type":"function","name":"safeTransferFrom","inputs":[{"name":"from","type":"address","internalType":"address"},{"name":"to","type":"address","internalType":"address"},{"name":"tokenId","type":"uint256","internalType":"uint256"},{"name":"data","type":"bytes","internalType":"bytes"}],"outputs":[],"stateMutability":"nonpayable"},{"type":"function","name":"setApprovalForAll","inputs":[{"name":"operator","type":"address","internalType":"address"},{"name":"approved","type":"bool","internalType":"bool"}],"outputs":[],"stateMutability":"nonpayable"},{"type":"function","name":"supportsInterface","inputs":[{"name":"interfaceId","type":"bytes4","internalType":"bytes4"}],"outputs":[{"name":"","type":"bool","internalType":"bool"}],"stateMutability":"view"},{"type":"function","name":"symbol","inputs":[],"outputs":[{"name":"","type":"string","internalType":"string"}],"stateMutability":"view"},{"type":"function","name":"tokenURI","inputs":[{"name":"tokenId","type":"uint256","internalType":"uint256"}],"outputs":[{"name":"","type":"string","internalType":"string"}],"stateMutability":"view"},{"type":"function","name":"transferFrom","inputs":[{"name":"from","type":"address","internalType":"address"},{"name":"to","type":"address","internalType":"address"},{"name":"tokenId","type":"uint256","internalType":"uint256"}],"outputs":[],"stateMutability":"nonpayable"},{"type":"function","name":"transferOwnership","inputs":[{"name":"newOwner","type":"address","internalType":"address"}],"outputs":[],"stateMutability":"nonpayable"},{"type":"event","name":"Approval","inputs":[{"name":"owner","type":"address","indexed":true,"internalType":"address"},{"name":"approved","type":"address","indexed":true,"internalType":"address"},{"name":"tokenId","type":"uint256","indexed":true,"internalType":"uint256"}],"anonymous":false},{"type":"event","name":"ApprovalForAll","inputs":[{"name":"owner","type":"address","indexed":true,"internalType":"address"},{"name":"operator","type":"address","indexed":true,"internalType":"address"},{"name":"approved","type":"bool","indexed":false,"internalType":"bool"}],"anonymous":false},{"type":"event","name":"OwnershipTransferred","inputs":[{"name":"previousOwner","type":"address","indexed":true,"internalType":"address"},{"name":"newOwner","type":"address","indexed":true,"internalType":"address"}],"anonymous":false},{"type":"event","name":"Transfer","inputs":[{"name":"from","type":"address","indexed":true,"internalType":"address"},{"name":"to","type":"address","indexed":true,"internalType":"address"},{"name":"tokenId","type":"uint256","indexed":true,"internalType":"uint256"}],"anonymous":false},{"type":"error","name":"ERC721IncorrectOwner","inputs":[{"name":"sender","type":"address","internalType":"address"},{"name":"tokenId","type":"uint256","internalType":"uint256"},{"name":"owner","type":"address","internalType":"address"}]},{"type":"error","name":"ERC721InsufficientApproval","inputs":[{"name":"operator","type":"address","internalType":"address"},{"name":"tokenId","type":"uint256","internalType":"uint256"}]},{"type":"error","name":"ERC721InvalidApprover","inputs":[{"name":"approver","type":"address","internalType":"address"}]},{"type":"error","name":"ERC721InvalidOperator","inputs":[{"name":"operator","type":"address","internalType":"address"}]},{"type":"error","name":"ERC721InvalidOwner","inputs":[{"name":"owner","type":"address","internalType":"address"}]},{"type":"error","name":"ERC721InvalidReceiver","inputs":[{"name":"receiver","type":"address","internalType":"address"}]},{"type":"error","name":"ERC721InvalidSender","inputs":[{"name":"sender","type":"address","internalType":"address"}]},{"type":"error","name":"ERC721NonexistentToken","inputs":[{"name":"tokenId","type":"uint256","internalType":"uint256"}]},{"type":"error","name":"OwnableInvalidOwner","inputs":[{"name":"owner","type":"address","internalType":"address"}]},{"type":"error","name":"OwnableUnauthorizedAccount","inputs":[{"name":"account","type":"address","internalType":"address"}]}],"bytecode":{"object":"0x608060405234801561000f575f80fd5b50336040518060400160405280600d81526020016c20bb309021b430b930b1ba32b960991b8152506040518060400160405280600381526020016241564160e81b815250815f90816100619190610196565b50600161006e8282610196565b5050506001600160a01b03811661009e57604051631e4fbdf760e01b81525f600482015260240160405180910390fd5b6100a7816100ad565b50610250565b600680546001600160a01b038381166001600160a01b0319831681179093556040519116919082907f8be0079c531659141344cd1fd0a4f28419497f9722a3daafe3b4186f6b6457e0905f90a35050565b634e487b7160e01b5f52604160045260245ffd5b600181811c9082168061012657607f821691505b60208210810361014457634e487b7160e01b5f52602260045260245ffd5b50919050565b601f82111561019157805f5260205f20601f840160051c8101602085101561016f5750805b601f840160051c820191505b8181101561018e575f815560010161017b565b50505b505050565b81516001600160401b038111156101af576101af6100fe565b6101c3816101bd8454610112565b8461014a565b6020601f8211600181146101f5575f83156101de5750848201515b5f19600385901b1c1916600184901b17845561018e565b5f84815260208120601f198516915b828110156102245787850151825560209485019460019092019101610204565b508482101561024157868401515f19600387901b60f8161c191681555b50505050600190811b01905550565b61184f8061025d5f395ff3fe608060405234801561000f575f80fd5b506004361061012f575f3560e01c806375794a3c116100ad578063b88d4fde1161007d578063d0def52111610063578063d0def52114610287578063e985e9c51461029a578063f2fde38b146102e2575f80fd5b8063b88d4fde14610261578063c87b56dd14610274575f80fd5b806375794a3c1461021f5780638da5cb5b1461022857806395d89b4114610246578063a22cb4651461024e575f80fd5b806323b872dd116101025780636352211e116100e85780636352211e146101e357806370a08231146101f6578063715018a614610217575f80fd5b806323b872dd146101bd57806342842e0e146101d0575f80fd5b806301ffc9a71461013357806306fdde031461015b578063081812fc14610170578063095ea7b3146101a8575b5f80fd5b610146610141366004611261565b6102f5565b60405190151581526020015b60405180910390f35b6101636103d9565b60405161015291906112cf565b61018361017e3660046112e1565b610468565b60405173ffffffffffffffffffffffffffffffffffffffff9091168152602001610152565b6101bb6101b6366004611320565b61049c565b005b6101bb6101cb366004611348565b6104ab565b6101bb6101de366004611348565b61059f565b6101836101f13660046112e1565b6105be565b610209610204366004611382565b6105c8565b604051908152602001610152565b6101bb610640565b61020960075481565b60065473ffffffffffffffffffffffffffffffffffffffff16610183565b610163610653565b6101bb61025c36600461139b565b610662565b6101bb61026f366004611496565b61066d565b6101636102823660046112e1565b610685565b61020961029536600461150d565b6107d3565b6101466102a836600461156b565b73ffffffffffffffffffffffffffffffffffffffff9182165f90815260056020908152604080832093909416825291909152205460ff1690565b6101bb6102f0366004611382565b61081b565b5f7fffffffff0000000000000000000000000000000000000000000000000000000082167f80ac58cd00000000000000000000000000000000000000000000000000000000148061038757507fffffffff0000000000000000000000000000000000000000000000000000000082167f5b5e139f00000000000000000000000000000000000000000000000000000000145b806103d357507f01ffc9a7000000000000000000000000000000000000000000000000000000007fffffffff000000000000000000000000000000000000000000000000000000008316145b92915050565b60605f80546103e79061159c565b80601f01602080910402602001604051908101604052809291908181526020018280546104139061159c565b801561045e5780601f106104355761010080835404028352916020019161045e565b820191905f5260205f20905b81548152906001019060200180831161044157829003601f168201915b5050505050905090565b5f6104728261087e565b505f8281526004602052604090205473ffffffffffffffffffffffffffffffffffffffff166103d3565b6104a78282336108dc565b5050565b73ffffffffffffffffffffffffffffffffffffffff82166104ff576040517f64a0ae920000000000000000000000000000000000000000000000000000000081525f60048201526024015b60405180910390fd5b5f61050b8383336108e9565b90508373ffffffffffffffffffffffffffffffffffffffff168173ffffffffffffffffffffffffffffffffffffffff1614610599576040517f64283d7b00000000000000000000000000000000000000000000000000000000815273ffffffffffffffffffffffffffffffffffffffff808616600483015260248201849052821660448201526064016104f6565b50505050565b6105b983838360405180602001604052805f81525061066d565b505050565b5f6103d38261087e565b5f73ffffffffffffffffffffffffffffffffffffffff8216610618576040517f89c62b640000000000000000000000000000000000000000000000000000000081525f60048201526024016104f6565b5073ffffffffffffffffffffffffffffffffffffffff165f9081526003602052604090205490565b610648610a60565b6106515f610ab3565b565b6060600180546103e79061159c565b6104a7338383610b29565b6106788484846104ab565b6105993385858585610c25565b5f8181526002602052604090205460609073ffffffffffffffffffffffffffffffffffffffff16610738576040517f08c379a000000000000000000000000000000000000000000000000000000000815260206004820152602760248201527f4552433732313a2055524920717565727920666f72206e6f6e6578697374656e60448201527f7420746f6b656e0000000000000000000000000000000000000000000000000060648201526084016104f6565b5f82815260086020526040902080546107509061159c565b80601f016020809104026020016040519081016040528092919081815260200182805461077c9061159c565b80156107c75780601f1061079e576101008083540402835291602001916107c7565b820191905f5260205f20905b8154815290600101906020018083116107aa57829003601f168201915b50505050509050919050565b5f6107dc610a60565b600780545f91826107ec836115ed565b9190505590506107fc8482610e1b565b5f818152600860205260409020610813848261168d565b509392505050565b610823610a60565b73ffffffffffffffffffffffffffffffffffffffff8116610872576040517f1e4fbdf70000000000000000000000000000000000000000000000000000000081525f60048201526024016104f6565b61087b81610ab3565b50565b5f8181526002602052604081205473ffffffffffffffffffffffffffffffffffffffff16806103d3576040517f7e273289000000000000000000000000000000000000000000000000000000008152600481018490526024016104f6565b6105b98383836001610e34565b5f8281526002602052604081205473ffffffffffffffffffffffffffffffffffffffff9081169083161561092257610922818486610ffc565b73ffffffffffffffffffffffffffffffffffffffff8116156109955761094a5f855f80610e34565b73ffffffffffffffffffffffffffffffffffffffff81165f90815260036020526040902080547fffffffffffffffffffffffffffffffffffffffffffffffffffffffffffffffff0190555b73ffffffffffffffffffffffffffffffffffffffff8516156109dd5773ffffffffffffffffffffffffffffffffffffffff85165f908152600360205260409020805460010190555b5f8481526002602052604080822080547fffffffffffffffffffffffff00000000000000000000000000000000000000001673ffffffffffffffffffffffffffffffffffffffff89811691821790925591518793918516917fddf252ad1be2c89b69c2b068fc378daa952ba7f163c4a11628f55a4df523b3ef91a4949350505050565b60065473ffffffffffffffffffffffffffffffffffffffff163314610651576040517f118cdaa70000000000000000000000000000000000000000000000000000000081523360048201526024016104f6565b6006805473ffffffffffffffffffffffffffffffffffffffff8381167fffffffffffffffffffffffff0000000000000000000000000000000000000000831681179093556040519116919082907f8be0079c531659141344cd1fd0a4f28419497f9722a3daafe3b4186f6b6457e0905f90a35050565b73ffffffffffffffffffffffffffffffffffffffff8216610b8e576040517f5b08ba1800000000000000000000000000000000000000000000000000000000815273ffffffffffffffffffffffffffffffffffffffff831660048201526024016104f6565b73ffffffffffffffffffffffffffffffffffffffff8381165f8181526005602090815260408083209487168084529482529182902080547fffffffffffffffffffffffffffffffffffffffffffffffffffffffffffffff001686151590811790915591519182527f17307eab39ab6107e8899845ad3d59bd9653f200f220920489ca2b5937696c31910160405180910390a3505050565b73ffffffffffffffffffffffffffffffffffffffff83163b15610e14576040517f150b7a0200000000000000000000000000000000000000000000000000000000815273ffffffffffffffffffffffffffffffffffffffff84169063150b7a0290610c9a9088908890879087906004016117a4565b6020604051808303815f875af1925050508015610cf2575060408051601f3d9081017fffffffffffffffffffffffffffffffffffffffffffffffffffffffffffffffe0168201909252610cef918101906117fe565b60015b610d7f573d808015610d1f576040519150601f19603f3d011682016040523d82523d5f602084013e610d24565b606091505b5080515f03610d77576040517f64a0ae9200000000000000000000000000000000000000000000000000000000815273ffffffffffffffffffffffffffffffffffffffff851660048201526024016104f6565b805181602001fd5b7fffffffff0000000000000000000000000000000000000000000000000000000081167f150b7a020000000000000000000000000000000000000000000000000000000014610e12576040517f64a0ae9200000000000000000000000000000000000000000000000000000000815273ffffffffffffffffffffffffffffffffffffffff851660048201526024016104f6565b505b5050505050565b6104a7828260405180602001604052805f8152506110ac565b8080610e55575073ffffffffffffffffffffffffffffffffffffffff821615155b15610fa8575f610e648461087e565b905073ffffffffffffffffffffffffffffffffffffffff831615801590610eb757508273ffffffffffffffffffffffffffffffffffffffff168173ffffffffffffffffffffffffffffffffffffffff1614155b8015610ef5575073ffffffffffffffffffffffffffffffffffffffff8082165f9081526005602090815260408083209387168352929052205460ff16155b15610f44576040517fa9fbf51f00000000000000000000000000000000000000000000000000000000815273ffffffffffffffffffffffffffffffffffffffff841660048201526024016104f6565b8115610fa657838573ffffffffffffffffffffffffffffffffffffffff168273ffffffffffffffffffffffffffffffffffffffff167f8c5be1e5ebec7d5bd14f71427d1e84f3dd0314c0f7b2291e5b200ac8c7c3b92560405160405180910390a45b505b50505f90815260046020526040902080547fffffffffffffffffffffffff00000000000000000000000000000000000000001673ffffffffffffffffffffffffffffffffffffffff92909216919091179055565b6110078383836110c3565b6105b95773ffffffffffffffffffffffffffffffffffffffff831661105b576040517f7e273289000000000000000000000000000000000000000000000000000000008152600481018290526024016104f6565b6040517f177e802f00000000000000000000000000000000000000000000000000000000815273ffffffffffffffffffffffffffffffffffffffff83166004820152602481018290526044016104f6565b6110b68383611187565b6105b9335f858585610c25565b5f73ffffffffffffffffffffffffffffffffffffffff83161580159061117f57508273ffffffffffffffffffffffffffffffffffffffff168473ffffffffffffffffffffffffffffffffffffffff16148061114f575073ffffffffffffffffffffffffffffffffffffffff8085165f9081526005602090815260408083209387168352929052205460ff165b8061117f57505f8281526004602052604090205473ffffffffffffffffffffffffffffffffffffffff8481169116145b949350505050565b73ffffffffffffffffffffffffffffffffffffffff82166111d6576040517f64a0ae920000000000000000000000000000000000000000000000000000000081525f60048201526024016104f6565b5f6111e283835f6108e9565b905073ffffffffffffffffffffffffffffffffffffffff8116156105b9576040517f73c6ac6e0000000000000000000000000000000000000000000000000000000081525f60048201526024016104f6565b7fffffffff000000000000000000000000000000000000000000000000000000008116811461087b575f80fd5b5f60208284031215611271575f80fd5b813561127c81611234565b9392505050565b5f81518084528060208401602086015e5f6020828601015260207fffffffffffffffffffffffffffffffffffffffffffffffffffffffffffffffe0601f83011685010191505092915050565b602081525f61127c6020830184611283565b5f602082840312156112f1575f80fd5b5035919050565b803573ffffffffffffffffffffffffffffffffffffffff8116811461131b575f80fd5b919050565b5f8060408385031215611331575f80fd5b61133a836112f8565b946020939093013593505050565b5f805f6060848603121561135a575f80fd5b611363846112f8565b9250611371602085016112f8565b929592945050506040919091013590565b5f60208284031215611392575f80fd5b61127c826112f8565b5f80604083850312156113ac575f80fd5b6113b5836112f8565b9150602083013580151581146113c9575f80fd5b809150509250929050565b7f4e487b71000000000000000000000000000000000000000000000000000000005f52604160045260245ffd5b5f8067ffffffffffffffff84111561141b5761141b6113d4565b506040517fffffffffffffffffffffffffffffffffffffffffffffffffffffffffffffffe0601f85018116603f0116810181811067ffffffffffffffff82111715611468576114686113d4565b60405283815290508082840185101561147f575f80fd5b838360208301375f60208583010152509392505050565b5f805f80608085870312156114a9575f80fd5b6114b2856112f8565b93506114c0602086016112f8565b925060408501359150606085013567ffffffffffffffff8111156114e2575f80fd5b8501601f810187136114f2575f80fd5b61150187823560208401611401565b91505092959194509250565b5f806040838503121561151e575f80fd5b611527836112f8565b9150602083013567ffffffffffffffff811115611542575f80fd5b8301601f81018513611552575f80fd5b61156185823560208401611401565b9150509250929050565b5f806040838503121561157c575f80fd5b611585836112f8565b9150611593602084016112f8565b90509250929050565b600181811c908216806115b057607f821691505b6020821081036115e7577f4e487b71000000000000000000000000000000000000000000000000000000005f52602260045260245ffd5b50919050565b5f7fffffffffffffffffffffffffffffffffffffffffffffffffffffffffffffffff8203611642577f4e487b71000000000000000000000000000000000000000000000000000000005f52601160045260245ffd5b5060010190565b601f8211156105b957805f5260205f20601f840160051c8101602085101561166e5750805b601f840160051c820191505b81811015610e14575f815560010161167a565b815167ffffffffffffffff8111156116a7576116a76113d4565b6116bb816116b5845461159c565b84611649565b6020601f82116001811461170c575f83156116d65750848201515b7fffffffffffffffffffffffffffffffffffffffffffffffffffffffffffffffff600385901b1c1916600184901b178455610e14565b5f848152602081207fffffffffffffffffffffffffffffffffffffffffffffffffffffffffffffffe08516915b828110156117595787850151825560209485019460019092019101611739565b508482101561179557868401517fffffffffffffffffffffffffffffffffffffffffffffffffffffffffffffffff600387901b60f8161c191681555b50505050600190811b01905550565b73ffffffffffffffffffffffffffffffffffffffff8516815273ffffffffffffffffffffffffffffffffffffffff84166020820152826040820152608060608201525f6117f46080830184611283565b9695505050505050565b5f6020828403121561180e575f80fd5b815161127c8161123456fea2646970667358221220fe5c79642839601d8e3f8e60766a45b8b083d3e4212f39ac7977dbd7414a652164736f6c634300081a0033","linkReferences":{}},"methodIdentifiers":{"approve(address,uint256)":"095ea7b3","balanceOf(address)":"70a08231","getApproved(uint256)":"081812fc","isApprovedForAll(address,address)":"e985e9c5","mint(address,string)":"d0def521","name()":"06fdde03","nextTokenId()":"75794a3c","owner()":"8da5cb5b","ownerOf(uint256)":"6352211e","renounceOwnership()":"715018a6","safeTransferFrom(address,address,uint256)":"42842e0e","safeTransferFrom(address,address,uint256,bytes)":"b88d4fde","setApprovalForAll(address,bool)":"a22cb465","supportsInterface(bytes4)":"01ffc9a7","symbol()":"95d89b41","tokenURI(uint256)":"c87b56dd","transferFrom(address,address,uint256)":"23b872dd","transferOwnership(address)":"f2fde38b"},"id":0}